S01800005350495F5376656E5F5365676D656E742E73726563F3
S11300000C942A000C9434000C9434000C943400A6
S11300100C9434000C9434000C9434000C9434008C
S11300200C9434000C9434000C9434000C9434007C
S11300300C9434000C9434000C9434000C9434006C
S11300400C9434000C9434000C9434000C9434005C
S11300500C94340011241FBECFE5D8E0DEBFCDBF21
S11300600E9443000C9470000C94000098B39F7E8F
S113007098BB8FB9779BFECF6FB9779BFECF88B3C0
S1130080806188BB08950E946B006FEF89E00E9435
S113009036006FEF8AE00E94360067EF8BE00E9423
S11300A0360061E08CE00E94360060E0C1E010C0E0
S11300B0D1E0D60F8C2F0E9436002FE38DE093E021
S11300C0215080409040E1F700C00000CF5F6D2FC9
S11300D0C93070F3EBCF80EB87BB81E58DB9089510
S10700E0F894FFCFBE
S9030000FC
