:100000000C942A000C9434000C9434000C943400AA
:100010000C9434000C9434000C9434000C94340090
:100020000C9434000C9434000C9434000C94340080
:100030000C9434000C9434000C9434000C94340070
:100040000C9434000C9434000C9434000C94340060
:100050000C94340011241FBECFE5D8E0DEBFCDBF25
:100060000E9445000C9476000C940000CF93C62F9C
:1000700098B39F7E98BB0E9472008C2F0E947200E2
:1000800088B3806188BBCF9108950E946D006FEFA7
:1000900089E00E9436006FEF8AE00E94360067EF29
:1000A0008BE00E94360061E08CE00E94360060E048
:1000B000C1E007C0D1E0D60F8C2F0E943600CF5F81
:1000C0006D2FC930B8F32FE58AEE90E021508040C3
:1000D0009040E1F700C00000EBCF80EB87BB81E5EB
:1000E0008DB908958FB98EB18FB10895F894FFCF6F
:00000001FF
