:100000000C942A000C943F000C943F000C943F0089
:100010000C943F000C943F000C943F000C943F0064
:100020000C943F000C943F000C943F000C943F0054
:100030000C943F000C943F000C943F000C943F0044
:100040000C943F000C943F000C943F000C943F0034
:100050000C943F0011241FBECFE5D8E0DEBFCDBF1A
:1000600010E0A0E6B0E0E0E4F2E002C005900D92FE
:10007000A037B107D9F70E940A010C941E010C9415
:1000800000008FEF8ABB87B38E6087BB089588B36B
:10009000877F88BB8FE097E20197F1F700C00000EF
:1000A00088B3886088BB0895CF93C82F807F8BBBAF
:1000B00088B3826088BB88B38B7F88BB0E9447006F
:1000C000C295C07FCBBB88B3826088BB88B38B7F6F
:1000D00088BB0E944700CF9108958AB38F708ABB76
:1000E0001ABA88B3846088BB88B38D7F88BB0E94AE
:1000F00047008FEF8ABB88B38B7F88BB0895CF936F
:10010000C82F0E946D008BB38F709C2F907F892B1E
:100110008BBB88B38D7F88BB88B38B7F88BB0E94E5
:1001200047002BB330E1C39FC0011124922F9F7071
:10013000892B8BBB88B38D7F88BB88B38B7F88BBB3
:100140000E944700CF91089581E00E947F000895AA
:100150000E946D0087E893E10197F1F700C000006D
:100160008CE00E947F0087E893E10197F1F700C0DF
:10017000000082E00E947F0088E20E947F008FE002
:100180000E947F000E94A40087EA91E60197F1F7A0
:1001900000C0000084E00E947F0008958130910536
:1001A00029F480E8860F0E947F000895029721F4C9
:1001B00080EC860F0E947F0008950F931F93CF93CA
:1001C000DF938C01C0E0D0E01CC021960F5F1F4F71
:1001D0000E945400C031D10539F460E070E082E043
:1001E00090E00E94CE000DC0C032D10551F40E94B3
:1001F000A40060E070E081E090E00E94CE00C0E0EA
:10020000D0E0F80180818111E0CFDF91CF911F9183
:100210000F9108950E9441000E94A80080E690E09E
:100220000E94DD002FE38DE093E02150804090405C
:10023000E1F700C000000E94A400F0CFF894FFCFC7
:100240004C6561726E20496E2044657074680000D0
:00000001FF
