S00B00004144432E7372656351
S11300000C9431000C9446000C9446000C94460069
S11300100C9446000C9446000C9446000C94460044
S11300200C9446000C9446000C9446000C94460034
S11300300C9446000C9446000C9446000C94460024
S11300400C9446000C9446000C9446000C94460014
S11300500C944600070111011B0125012F013901F0
S1130060430111241FBECFE5D8E0DEBFCDBF10E0B1
S1130070A0E6B0E0ECE7F5E002C005900D92A437ED
S1130080B107D9F70E9448020C94BC020C940000FA
S113009096B1906896B9811107C087B18F7787B9F7
S11300A087B18F7B87B91AC0813039F487B18F77D4
S11300B087B987B1806487B911C0823039F487B1B8
S11300C0806887B987B18F7B87B908C0833031F4E2
S11300D087B1806887B987B1806487B9611110C01E
S11300E087B18E7F87B987B18D7F87B987B18B7FC1
S11300F087B987B1877F87B987B18F7E87B97DC07C
S1130100613081F487B1816087B987B18D7F87B908
S113011087B18B7F87B987B1877F87B987B18F7E96
S113012087B96BC0623081F487B18E7F87B987B19C
S1130130826087B987B18B7F87B987B1877F87B999
S113014087B18F7E87B959C0633081F487B18160EC
S113015087B987B1826087B987B18B7F87B987B147
S1130160877F87B987B18F7E87B947C0643081F4B0
S113017087B18E7F87B987B18D7F87B987B1846056
S113018087B987B1877F87B987B18F7E87B935C033
S1130190653081F487B1816087B987B18D7F87B974
S11301A087B1846087B987B1877F87B987B18F7E2C
S11301B087B923C0663081F487B18E7F87B987B150
S11301C0826087B987B1846087B987B1877F87B92F
S11301D087B18F7E87B911C0673079F487B18160A8
S11301E087B987B1826087B987B1846087B987B1DD
S11301F0877F87B987B18F7E87B950E04730510533
S113020008F04AC0FA01E65DFF4F0C94760286B10D
S11302108B7F86B986B18D7F86B986B18E7F86B98C
S1130220089586B18B7F86B986B1826086B986B11E
S11302308E7F86B9089586B18B7F86B986B1826038
S113024086B986B1816086B9089586B1846086B91D
S113025086B18D7F86B986B18E7F86B9089586B1C1
S1130260846086B986B18D7F86B986B1816086B98E
S1130270089586B1846086B986B1826086B986B1F4
S11302808E7F86B9089586B1846086B986B182600E
S113029086B986B1816086B9089586B1806886B9C9
S11302A086B1806486B9349BFECF86B1806186B9FD
S11302B084B195B1089588B3886088BB2FE788E33B
S11302C091E0215080409040E1F700C0000088B3E5
S11302D0877F88BB08958AB38F708ABB88B3846094
S11302E088BB88B38D7F88BB0E945B018AB3806F13
S11302F08ABB88B38B7F88BB0895CF93C82F0E9495
S11303006B018BB38F709C2F907F892B8BBB88B331
S1130310897F88BB0E945B012BB330E1C39FC0017E
S11303201124922F9F70892B8BBB88B3897F88BB44
S11303300E945B01CF91089581E00E947D010895A0
S1130340CF93DF93C82FD62F813031F4603120F45E
S113035080E8860F0E947D01C23031F4D03120F450
S113036080EC8D0F0E947D01DF91CF9108958FE382
S11303709CE90197F1F700C0000087B38E6087BB4A
S113038088B3817F88BB8AB3806F8ABB8FE295E78D
S11303900197F1F700C000000E949C0182E00E94D6
S11303A07D0188E20E947D0186E00E947D0180E853
S11303B00E947D018FE00E947D010895CF93C82F94
S11303C08BB38F709C2F907F892B8BBB88B38260FB
S11303D088BB88B38B7F88BB0E945B012BB330E161
S11303E0C39FC0011124922F9F70892B8BBB88B3AC
S11303F0826088BB88B38B7F88BB0E945B01CF91EE
S113040008950F931F93CF93DF938C01C0E0D0E046
S113041018C021960F5F1F4F0E94DE01C031D10525
S113042029F460E082E00E94A0010BC0C032D10533
S113043041F40E949C0160E081E00E94A001C0E0C0
S1130440D0E0F80180818111E4CFDF91CF911F9139
S11304500F910895CF93DF93CDB7DEB760970FB6B2
S1130460F894DEBF0FBECDBF4AE050E0BE016F5F1F
S11304707F4F0E947C02CE0101960E940102609689
S11304800FB6F894DEBF0FBECDBFDF91CF910895B4
S11304908AB38E7F8ABB0E94B70145E060E081E0A9
S11304A00E94480060E080E00E94A00180E690E0A5
S11304B00E94010260E081E00E94A0010E944D01BF
S11304C0EC0184E690E00E94010260E082E00E9478
S11304D0A001CE010E942A022FEF89E698E1215063
S11304E080409040E1F700C00000E8CFEE0FFF1F0E
S11304F00590F491E02D09944532510520F44230E1
S113050010F00C948702FB011082CB010895BB27E5
S11305104A3031F4992322F4BDE2909581959F4F9E
S11305200C949302BB27FB015527AA27880F991F18
S1130530AA1FA41710F0A41B83955051B9F7A05D0E
S1130540AA3308F0A95DA193009779F7B111B1938B
S11305501192CB010C94AC02DC01FC01672F719168
S11305607723E1F7329704C07C916D937083629195
S10F0570AE17BF07C8F30895F894FFCF3E
S113057C4144430020202020202020202020202023
S107058C2020000027
S9030000FC
