:100000000C942A000C9445000C9464000C9483001A
:100010000C9434000C9434000C9434000C94340090
:100020000C9434000C9434000C9434000C94340080
:100030000C9434000C9434000C9434000C94340070
:100040000C9434000C9434000C9434000C94340060
:100050000C94340011241FBECFE5D8E0DEBFCDBF25
:100060000E9436000C94A2000C9400008BB7806EA6
:100070008BBF85B78D6085BF84B784BF789481B30B
:10008000806E81BB87B387BBFFCF1F920F920FB6E5
:100090000F9211242F938F939F9382B3806282BB20
:1000A0002FEF8AE197EB215080409040E1F700C0AC
:1000B000000082B38F7D82BB9F918F912F910F9013
:1000C0000FBE0F901F9018951F920F920FB60F92B0
:1000D00011242F938F939F9382B3806482BB2FE769
:1000E00084E89EE1215080409040E1F700C000008C
:1000F00082B38F7B82BB9F918F912F910F900FBE08
:100100000F901F9018951F920F920FB60F92112407
:100110002F938F939F9382B3806882BB2FE784E8ED
:100120009EE1215080409040E1F700C0000082B382
:100130008F7782BB9F918F912F910F900FBE0F9061
:080140001F901895F894FFCF01
:00000001FF
