S0130000554152545F4472697665722E737265630A
S11300000C942A000C943F000C943F000C943F0085
S11300100C943F000C943F000C943F000C943F0060
S11300200C943F000C943F000C943F000C943F0050
S11300300C943F000C943F000C943F000C943F0040
S11300400C943F000C943F000C943F000C943F0030
S11300500C943F0011241FBECFE5D8E0DEBFCDBF16
S113006010E0A0E6B0E0E0E3F2E002C005900D92FB
S1130070A636B107D9F70E94CB000C9416010C9454
S113008000008FEF8ABB87B38E6087BB08958BBB5C
S113009088B38D7F88BB88B38B7F88BB88B3886027
S11300A088BB83EF91E00197F1F700C0000088B3AB
S11300B0877F88BB089588B3877F88BB8FE097E2EA
S11300C00197F1F700C0000088B3886088BB0895E9
S11300D01ABA88B3846088BB88B38D7F88BB0E94BA
S11300E05B008FEF8ABB88B38B7F88BB08950E9427
S11300F0680087E893E10197F1F700C000008CE005
S11301000E94470087E893E10197F1F700C00000DF
S113011088E30E94470089EF90E00197F1F700C05F
S1130120000081E00E94470089EF90E00197F1F719
S113013000C0000082E00E94470089EF90E0019730
S1130140F1F700C0000086E00E94470089EF90E0CC
S11301500197F1F700C0000080E80E94470089EF92
S113016090E00197F1F700C000000895CF93C82FE5
S11301700E946800CBBB88B3826088BB88B38B7F46
S113018088BB89EF90E00197F1F700C000000E945E
S11301905B00CF9108950E9441000E9477000E9465
S11301A0F2008DE40E9401018FE60E94010188E6BD
S11301B00E94010181E60E9401018DE60E94010175
S11301C085E60E94010184E60E94010180E20E940A
S11301D0010180E690E00E9409010E9405010E944D
S11301E0B600FBCF83E389B98BB18D7F8BB98AB11C
S11301F088608AB98BB18F7D8BB98AB180618AB9E5
S113020008955D9BFECF8CB908955F9BFECF8CB1A2
S11302100895CF93DF93EC0103C00E94010121965E
S113022088818332D1F7DF91CF910895F894FFCF7D
S10902304164656C23002B
S9030000FC
