S0150000536576656E5F5365676D656E742E73726563DC
S11300000C942A000C943F000C943F000C943F0085
S11300100C943F000C943F000C943F000C943F0060
S11300200C943F000C943F000C943F000C943F0050
S11300300C943F000C943F000C943F000C943F0040
S11300400C943F000C943F000C943F000C943F0030
S11300500C943F0011241FBECFE5D8E0DEBFCDBF16
S113006010E0A0E6B0E0E0EEF1E002C005900D92F1
S1130070AA36B107D9F70E9484000C94EE000C94C0
S11300800000CF93DF93CDB7DEB784E390E021E0A7
S113009030E0FC013183208385E390E0FC01118290
S11300A010820000DF91CF910895CF93DF9300D0A9
S11300B000D000D0CDB7DEB79E838D831A8219821B
S11300C012C01C821B8205C08B819C8101969C837B
S11300D08B838B819C818F3F9105B0F389819A81B9
S11300E001969A83898329813A818D819E8128177B
S11300F0390738F3000026960FB6F894DEBF0FBE1A
S1130100CDBFDF91CF910895CF93DF9300D0CDB7CA
S1130110DEB70E94410019825CC01A8253C085E395
S113012090E025E330E0F901208131812460FC0175
S11301303183208385E390E025E330E0F9012081D9
S11301403181277FFC013183208385E390E029817D
S1130150222F30E0205A3F4FF9012081222F30E036
S1130160FC01318320838CE390E00E94550085E3F9
S113017090E025E330E0F901208131812860FC0121
S11301803183208385E390E025E330E0F901208189
S113019031812B7FFC013183208385E390E02A8128
S11301A0222F30E0205A3F4FF9012081222F30E0E6
S11301B0FC01318320838CE390E00E9455008A8106
S11301C08F5F8A838A818A3008F4A9CF89818F5FFF
S11301D0898389818A3008F4A0CF9DCFF894FFCF1A
S10D01E03F065B4F666D7D077F6FDD
S9030000FC
