:100000000C942A000C9434000C9434000C943400AA
:100010000C9434000C9434000C9434000C94340090
:100020000C9434000C9434000C9434000C94340080
:100030000C9434000C9434000C9434000C94340070
:100040000C9434000C9434000C9434000C94340060
:100050000C94340011241FBECFE5D8E0DEBFCDBF25
:100060000E9442000C9460000C94000081B58861ED
:1000700081BD11BC089581B58E6081BD81B58E7F33
:1000800081BD089584B3816084BB2FE986E891E047
:10009000215080409040E1F700C000000E943B00EA
:1000A00095B381E0892785BB2FE78AE196E021504F
:1000B00080409040E1F700C000000E943600EECF83
:0400C000F894FFCFE2
:00000001FF
