S01900004C43445F6B65797061645F4472697665722E7372656390
S11300000C942A000C943F000C943F000C943F0085
S11300100C943F000C943F000C943F000C943F0060
S11300200C943F000C943F000C943F000C943F0050
S11300300C943F000C943F000C943F000C943F0040
S11300400C943F000C943F000C943F000C943F0030
S11300500C943F0011241FBECFE5D8E0DEBFCDBF16
S113006010E0A0E6B0E0E2EAF2E102C005900D92F1
S1130070A037B107D9F70E9413080C944F090C94C8
S11300800000CF93DF93CDB7DEB781E390E021E3A7
S113009030E0F90120812E7FFC01208381E390E090
S11300A021E330E0F9012081206FFC01208382E309
S11300B090E02FEFFC0120830000DF91CF910895A1
S11300C0CF93DF9300D000D0CDB7DEB71A82198268
S11300D013C182E390E022E330E0F9012081722F22
S11300E0409168005091690021E030E002C0220F85
S11300F0331F4A95E2F7622F40916A0050916B00DA
S113010021E030E002C0220F331F4A95E2F7622B50
S113011040916C0050916D0021E030E002C0220F4C
S1130120331F4A95E2F7622B40916E0050916F00A5
S113013021E030E002C0220F331F4A95E2F7262B5C
S1130140272BFC01208382E390E022E330E0F901D5
S11301502081622F29813A81220F331F28593F4F72
S1130160F9014081518121E030E002C0220F331FA8
S11301704A95E2F720952623FC0120831C821B82EA
S1130180B1C080E390E0FC018081882F90E02B8156
S11301903C81220F331F205A3F4FF90120813181C6
S11301A002C0959587952A95E2F781709927892B46
S11301B009F093C0000080E390E0FC018081882F67
S11301C090E02B813C81220F331F205A3F4FF901CD
S11301D02081318102C0959587952A95E2F7817037
S11301E09927892B41F389819A818130910531F1D5
S11301F0823091051CF4892B41F06FC08230910547
S1130200A9F1039709F44AC068C08B819C81892BAA
S113021011F487E377C08B819C81019711F484E307
S113022071C08B819C81029711F481E36BC08B8137
S11302309C81039709F04AC081E264C08B819C8150
S1130240892B11F488E35EC08B819C81019711F4A2
S113025085E358C08B819C81029711F482E352C0DC
S11302608B819C810397A1F580E34CC08B819C8199
S1130270892B11F489E346C08B819C81019711F489
S113028086E340C08B819C81029711F483E33AC0DA
S11302908B819C810397F1F480E334C08B819C8132
S11302A0892B11F48FE22EC08B819C81019711F46C
S11302B08AE228C08B819C81029711F48DE222C0CE
S11302C08B819C81039741F48BE21CC0000005C024
S11302D0000003C0000001C000008B819C810196D6
S11302E09C838B838B819C8104970CF44ACF8981F6
S11302F09A8101969A83898389819A8104970CF45F
S1130300E8CE8EE40F900F900F900F90DF91CF9175
S11303100895CF93DF93CDB7DEB78AE390E02FEF54
S1130320FC01208387E390E027E330E0F90120819A
S11303302E60FC0120830000DF91CF910895CF93BC
S1130340DF93CDB7DEB72F970FB6F894DEBF0FBE9D
S1130350CDBF8F878BE390E02F85FC01208388E35A
S113036090E028E330E0F90120812D7FFC01208317
S113037088E390E028E330E0F90120812B7FFC0141
S1130380208388E390E028E330E0F90120812860AD
S1130390FC01208380E090E0A0E0B0E489839A83AC
S11303A0AB83BC8320E030E04AE753E469817A817F
S11303B08B819C810E94BA08DC01CB018D839E83D2
S11303C0AF83B88720E030E040E85FE36D817E8151
S11303D08F8198850E94340888232CF481E090E072
S11303E09A8789873FC020E03FEF4FE757E46D814C
S11303F07E818F8198850E94B50818164CF520E0FF
S113040030E040E251E469817A818B819C810E94D1
S1130410BA08DC01CB01BC01CD010E943908DC0122
S1130420CB019A8789870FC089E190E09C878B87ED
S11304308B859C850197F1F79C878B8789859A85A5
S113044001979A87898789859A85892B69F714C0CA
S11304506D817E818F8198850E943908DC01CB01F2
S11304609A87898789859A859E878D878D859E85BC
S11304700197F1F79E878D8788E390E028E330E0C9
S1130480F9012081277FFC01208300002F960FB6FD
S1130490F894DEBF0FBECDBFDF91CF9108950F93C7
S11304A01F93CF93DF93CDB7DEB7C256D1090FB6F2
S11304B0F894DEBF0FBECDBF0E94DA0780E090E063
S11304C0A0EAB1E489839A83AB83BC838E01075A83
S11304D01F4F20E030E04AE753E469817A818B8141
S11304E09C810E94BA08DC01CB01F80180839183CE
S11304F0A283B383CE01875A9F4F20E030E040E8C7
S11305005FE3FC0160817181828193810E943408E0
S113051088234CF4CE01835A9F4F21E030E0FC0144
S11305203183208369C0CE01875A9F4F20E03FEF7B
S11305304FE757E4FC0160817181828193810E94BD
S1130540B50818160CF046C020E030E040E251E453
S113055069817A818B819C810E94BA08DC01CB017C
S11305608E01035A1F4FBC01CD010E943908DC01E2
S1130570CB01F8019183808324C0CE01815A9F4F1F
S113058029E130E0FC0131832083CE01815A9F4F61
S1130590FC01808191810197F1F79E01215A3F4F1F
S11305A0F90191838083CE01835A9F4F9E01235A80
S11305B03F4FF9012081318121503109FC01318300
S11305C02083CE01835A9F4FFC0180819181892B26
S11305D0A1F62CC08E01035A1F4FCE01875A9F4F9C
S11305E0FC0160817181828193810E943908DC0160
S11305F0CB01F80191838083CE018F599F4F9E01D7
S1130600235A3F4FF90120813181FC01318320833A
S1130610CE018F599F4FFC01808191810197F1F7A1
S11306209E012F593F4FF901918380838CE00E94F2
S11306309F0180E090E0A0EAB1E48D839E83AF83C4
S1130640B8878E01015B1F4F20E030E04AE753E496
S11306506D817E818F8198850E94BA08DC01CB016F
S1130660F80180839183A283B383CE01815B9F4F82
S113067020E030E040E85FE3FC0160817181828129
S113068093810E94340888234CF4CE018D5A9F4FE5
S113069021E030E0FC013183208369C0CE01815B1D
S11306A09F4F20E03FEF4FE757E4FC0160817181E9
S11306B0828193810E94B50818160CF046C020E090
S11306C030E040E251E46D817E818F8198850E9403
S11306D0BA08DC01CB018E010D5A1F4FBC01CD01BC
S11306E00E943908DC01CB01F8019183808324C086
S11306F0CE018B5A9F4F29E130E0FC0131832083E6
S1130700CE018B5A9F4FFC01808191810197F1F7B3
S11307109E012B5A3F4FF90191838083CE018D5A5C
S11307209F4F9E012D5A3F4FF90120813181215065
S11307303109FC0131832083CE018D5A9F4FFC0186
S113074080819181892BA1F62CC08E010D5A1F4FF7
S1130750CE01815B9F4FFC01608171818281938115
S11307600E943908DC01CB01F80191838083CE011A
S1130770895A9F4F9E012D5A3F4FF90120813181A3
S1130780FC0131832083CE01895A9F4FFC01808173
S113079091810197F1F79E01295A3F4FF901918305
S11307A0808388E30E949F0180E090E0A0E8BFE39B
S11307B089879A87AB87BC878E010B5B1F4F20E02C
S11307C030E04AE753E469857A858B859C850E94ED
S11307D0BA08DC01CB01F80180839183A283B3833F
S11307E0CE018B5B9F4F20E030E040E85FE3FC01EB
S11307F060817181828193810E94340888234CF442
S1130800CE01875B9F4F21E030E0FC0131832083E0
S113081069C0CE018B5B9F4F20E03FEF4FE757E469
S1130820FC0160817181828193810E94B508181650
S11308300CF046C020E030E040E251E469857A855E
S11308408B859C850E94BA08DC01CB018E01075B75
S11308501F4FBC01CD010E943908DC01CB01F80116
S11308609183808324C0CE01855B9F4F29E130E0D2
S1130870FC0131832083CE01855B9F4FFC01808185
S113088091810197F1F79E01255B3F4FF901918317
S11308908083CE01875B9F4F9E01275B3F4FF90109
S11308A02081318121503109FC0131832083CE0123
S11308B0875B9F4FFC0180819181892BA1F62CC01D
S11308C08E01075B1F4FCE018B5B9F4FFC01608144
S11308D07181828193810E943908DC01CB01F80186
S11308E091838083CE01835B9F4F9E01275B3F4FA3
S11308F0F90120813181FC0131832083CE01835BA6
S11309009F4FFC01808191810197F1F79E01235B48
S11309103F4FF9019183808381E00E949F0180E031
S113092090E0A0E8BFE38D879E87AF87B88B20E077
S113093030E04AE753E46D857E858F8598890E946F
S1130940BA08DC01CB018BAF9CAFADAFBEAF20E0EA
S113095030E040E85FE36BAD7CAD8DAD9EAD0E94B1
S11309603408882344F421E030E0CE01CF96FC0122
S1130970318320835FC020E03FEF4FE757E46BAD46
S11309807CAD8DAD9EAD0E94B50818160CF044C028
S113099020E030E040E251E46D857E858F859889C2
S11309A00E94BA08DC01CB01BC01CD010E943908C8
S11309B0DC01CB019E01215C3F4FF90191838083CF
S11309C023C0CE018F5B9F4F29E130E0FC013183CE
S11309D02083CE018F5B9F4FFC0180819181019721
S11309E0F1F79E012F5B3F4FF90191838083CE0184
S11309F0CF96FC01808191819C0121503109CE0167
S1130A00CF96FC0131832083CE01CF96FC018081F7
S1130A109181892BB1F628C06BAD7CAD8DAD9EADB7
S1130A200E943908DC01CB019E01215C3F4FF90192
S1130A3091838083CE018D5B9F4F9E01215C3F4F4C
S1130A40F90120813181FC0131832083CE018D5B4A
S1130A509F4FFC01808191810197F1F79E012D5BED
S1130A603F4FF9019183808382E00E949F0180E0DF
S1130A7090E0A0E8BFE3898B9A8BAB8BBC8B20E022
S1130A8030E04AE753E469897A898B899C890E941A
S1130A90BA08DC01CB0189AB9AABABABBCAB20E0B1
S1130AA030E040E85FE369A97AA98BA99CA90E9478
S1130AB0340888232CF481E090E09EAB8DAB3FC0DA
S1130AC020E03FEF4FE757E469A97AA98BA99CA9D5
S1130AD00E94B50818164CF520E030E040E251E4DD
S1130AE069897A898B899C890E94BA08DC01CB01C7
S1130AF0BC01CD010E943908DC01CB019EAB8DAB5A
S1130B000FC089E190E098AF8FAB8FA998AD0197A2
S1130B10F1F798AF8FAB8DA99EA901979EAB8DABD2
S1130B208DA99EA9892B69F714C069A97AA98BA9F3
S1130B309CA90E943908DC01CB019EAB8DAB8DA929
S1130B409EA99AAF89AF89AD9AAD0197F1F79AAF93
S1130B5089AF86E00E949F0180E090E0A0E8BFE3B7
S1130B608D8B9E8BAF8BB88F20E030E04AE753E447
S1130B706D897E898F89988D0E94BA08DC01CB012A
S1130B808FA398A7A9A7BAA720E030E040E85FE3C5
S1130B906FA178A589A59AA50E94340888232CF40E
S1130BA081E090E09CA78BA73FC020E03FEF4FE798
S1130BB057E46FA178A589A59AA50E94B5081816CF
S1130BC04CF520E030E040E251E46D897E898F8964
S1130BD0988D0E94BA08DC01CB01BC01CD010E94B2
S1130BE03908DC01CB019CA78BA70FC089E190E0F9
S1130BF09EA78DA78DA59EA50197F1F79EA78DA70A
S1130C008BA59CA501979CA78BA78BA59CA5892B3D
S1130C1069F714C06FA178A589A59AA50E9439081F
S1130C20DC01CB019CA78BA78BA59CA598AB8FA7B8
S1130C308FA598A90197F1F798AB8FA780E80E9438
S1130C409F0180E090E0A0E8BFE3898F9A8FAB8F8B
S1130C50BC8F20E030E04AE753E4698D7A8D8B8DB8
S1130C609C8D0E94BA08DC01CB018D8F9E8FAF8FC3
S1130C70B8A320E030E040E85FE36D8D7E8D8F8D7A
S1130C8098A10E94340888232CF481E090E09AA370
S1130C9089A33FC020E03FEF4FE757E46D8D7E8D81
S1130CA08F8D98A10E94B50818164CF520E030E00D
S1130CB040E251E4698D7A8D8B8D9C8D0E94BA0837
S1130CC0DC01CB01BC01CD010E943908DC01CB0160
S1130CD09AA389A30FC089E190E09CA38BA38BA165
S1130CE09CA10197F1F79CA38BA389A19AA10197D9
S1130CF09AA389A389A19AA1892B69F714C06D8D40
S1130D007E8D8F8D98A10E943908DC01CB019AA3B6
S1130D1089A389A19AA19EA38DA38DA19EA10197C8
S1130D20F1F79EA38DA30000CE59DF4F0FB6F894C0
S1130D30DEBF0FBECDBFDF91CF911F910F910895FC
S1130D40CF93DF93CDB7DEB72F970FB6F894DEBFFE
S1130D500FBECDBF8F870E94DA078BE390E02F850B
S1130D60FC01208388E390E028E330E0F90120814E
S1130D702260FC01208388E390E028E330E0F9015D
S1130D8020812B7FFC01208380E090E0A0E8BFE37A
S1130D9089839A83AB83BC8320E030E04AE753E441
S1130DA069817A818B819C810E94BA08DC01CB0124
S1130DB08D839E83AF83B88720E030E040E85FE313
S1130DC06D817E818F8198850E94340888232CF45C
S1130DD081E090E09A8789873FC020E03FEF4FE7AA
S1130DE057E46D817E818F8198850E94B50818161D
S1130DF04CF520E030E040E251E469817A818B8156
S1130E009C810E94BA08DC01CB01BC01CD010E9487
S1130E103908DC01CB019A8789870FC089E190E00A
S1130E209C878B878B859C850197F1F79C878B87A3
S1130E3089859A8501979A87898789859A85892BD7
S1130E4069F714C06D817E818F8198850E9439086D
S1130E50DC01CB019A87898789859A859E878D874E
S1130E608D859E850197F1F79E878D870E944207A5
S1130E7000002F960FB6F894DEBF0FBECDBFDF91F2
S1130E80CF910895CF93DF93CDB7DEB72E970FB6EA
S1130E90F894DEBF0FBECDBF88E390E028E330E0D6
S1130EA0F9012081277FFC01208380E090E0A0E20B
S1130EB0B2E489839A83AB83BC8320E030E04AE7C1
S1130EC053E469817A818B819C810E94BA08DC0198
S1130ED0CB018D839E83AF83B88720E030E040E868
S1130EE05FE36D817E818F8198850E943408882319
S1130EF02CF481E090E09A8789873FC020E03FEF9F
S1130F004FE757E46D817E818F8198850E94B508F3
S1130F1018164CF520E030E040E251E469817A8112
S1130F208B819C810E94BA08DC01CB01BC01CD01FC
S1130F300E943908DC01CB019A8789870FC089E1B7
S1130F4090E09C878B878B859C850197F1F79C8724
S1130F508B8789859A8501979A87898789859A8558
S1130F60892B69F714C06D817E818F8198850E94D9
S1130F703908DC01CB019A87898789859A859E8700
S1130F808D878D859E850197F1F79E878D8788E3F0
S1130F9090E028E330E0F90120812860FC012083FF
S1130FA000002E960FB6F894DEBF0FBECDBFDF91C2
S1130FB0CF910895CF93DF93CDB7DEB78AE390E066
S1130FC0FC01108288E390E028E330E0F9012081FD
S1130FD02460FC01208388E390E028E330E0F901F9
S1130FE020812D7FFC0120830E9442078AE390E048
S1130FF02FEFFC01208388E390E028E330E0F9013F
S113100020812B7FFC0120830000DF91CF91089584
S1131010CF93DF93CDB7DEB781E00E949F0100003C
S1131020DF91CF910895CF93DF931F92CDB7DEB7B1
S11310300E9489010E9441000E944F020E946000A8
S113104089838981882F90E08132910521F08E3443
S1131050910541F003C00E94080805C089810E94DF
S1131060A00601C00000EACF0E94680808F481E0ED
S113107008950E94940888F09F5798F0B92F9927F3
S1131080B751B0F0E1F0660F771F881F991F1AF06F
S1131090BA95C9F714C0B13091F00E94AE08B1E01E
S11310A008950C94AE08672F782F8827B85F39F01D
S11310B0B93FCCF3869577956795B395D9F73EF408
S11310C090958095709561957F4F8F4F9F4F0895B0
S11310D0990F0008550FAA0BE0E8FEEF1616170645
S11310E0E807F907C0F012161306E407F50798F0AD
S11310F0621B730B840B950B39F40A2661F0232BC6
S1131100242B252B21F408950A2609F4A140A69541
S11311108FEF811D811D089557FD9058440F551F71
S113112059F05F3F71F04795880F97FB991F61F065
S11311309F3F79F087950895121613061406551FDC
S1131140F2CF4695F1DF08C0161617061806991F48
S1131150F1CF86957105610508940895E894BB273D
S113116066277727CB0197F908950E94680808F449
S11311708FEF08950E94CD080C943E090E94300917
S113118038F00E94370920F0952311F00C942709B8
S11311900C942D0911240C94AF080E948C0870F350
S11311A0959FC1F3950F50E0551F629FF001729F08
S11311B0BB27F00DB11D639FAA27F00DB11DAA1F17
S11311C0649F6627B00DA11D661F829F2227B00D64
S11311D0A11D621F739FB00DA11D621F839FA00DEF
S11311E0611D221F749F3327A00D611D231F849F3F
S11311F0600D211D822F762F6A2F11249F57504096
S11312009AF0F1F088234AF0EE0FFF1FBB1F661F10
S1131210771F881F91505040A9F79E3F510580F0D9
S11312200C9427090C94AF085F3FE4F3983ED4F381
S1131230869577956795B795F795E7959F5FC1F77D
S1131240FE2B880F911D9695879597F9089597F928
S11312509F6780E870E060E008959FEF80EC089558
S113126000240A9416161706180609060895002481
S11312700A9412161306140605060895092E0394FB
S1131280000C11F4882352F0BB0F40F4BF2B11F46F
S113129060FF04C06F5F7F4F8F4F9F4F0895F89496
S10512A0FFCF7A
S11312A2000001000200030004000500060007001C
S9030000FC
