:100000000C942A000C9434000C9434000C943400AA
:100010000C9434000C9434000C9434000C94340090
:100020000C9434000C9434000C9434000C94340080
:100030000C9434000C9434000C9434000C94340070
:100040000C9434000C9434000C9434000C94340060
:100050000C94340011241FBECFE5D8E0DEBFCDBF25
:100060000E943E000C9469000C94000081B392B38E
:10007000806F92BB81BB13BA12BA08950E943600FA
:1000800082B393B3806293BB82BB82B393B38F7D01
:1000900093BB82BB82B393B3806493BB82BB82B3B6
:1000A00093B38F7B93BB82BB82B393B3806893BBC4
:1000B00082BB82B393B38F7793BB82BB82B393B37C
:1000C000806193BB82BB82B393B38F7E93BB82BBB1
:0600D000D7CFF894FFCF2A
:00000001FF
