S01700004763634170706C69636174696F6E312E737265635B
S11300000C942A000C9434000C9434000C943400A6
S11300100C9434000C9434000C9434000C9434008C
S11300200C9434000C9434000C9434000C9434007C
S11300300C9434000C9434000C9434000C9434006C
S11300400C9434000C9434000C9434000C9434005C
S11300500C94340011241FBECFE5D8E0DEBFCDBF21
S11300600E9441000C9455000C9400008DB18064F2
S11300708DB987B3806487BB08958FB98EB18FB172
S113008008950E9436008FEF8ABBCFEF2FE38DE0F7
S113009093E0215080409040E1F700C000008C2F95
S11100A00E943D008BBBC150F1CFF894FFCFFE
S9030000FC
