:100000000C942A000C9434000C9434000C943400AA
:100010000C9434000C9434000C9434000C94340090
:100020000C9434000C9434000C9434000C94340080
:100030000C9434000C9434000C9434000C94340070
:100040000C9434000C9434000C9434000C94340060
:100050000C94340011241FBECFE5D8E0DEBFCDBF25
:100060000E9474000C944B010C940000CF93DF931A
:10007000CDB7DEB781E390E021E030E0FC013183D1
:1000800020830000DF91CF910895CF93DF9300D0BC
:1000900000D000D0CDB7DEB79E838D831A8219823F
:1000A00012C01C821B8205C08B819C8101969C839F
:1000B0008B838B819C818F3F9105B0F389819A81DD
:1000C00001969A83898329813A818D819E8128179F
:1000D000390738F3000026960FB6F894DEBF0FBE3E
:1000E000CDBFDF91CF910895CF93DF93CDB7DEB72A
:1000F0000E94360082E390E022E330E0F9012081A3
:1001000031812160FC01318320838AE090E00E94EC
:10011000450082E390E022E330E0F9012081318163
:100120002E7FFC013183208382E390E022E330E0E4
:10013000F901208131812260FC01318320838AE032
:1001400090E00E94450082E390E022E330E0F90174
:10015000208131812D7FFC013183208382E390E077
:1001600022E330E0F901208131812460FC013183F8
:1001700020838AE090E00E94450082E390E022E341
:1001800030E0F901208131812B7FFC013183208314
:1001900082E390E022E330E0F901208131812860A0
:1001A000FC01318320838AE090E00E94450082E3D5
:1001B00090E022E330E0F90120813181277FFC01CA
:1001C0003183208382E390E022E330E0F901208153
:1001D00031812061FC01318320838AE090E00E941C
:1001E000450082E390E022E330E0F9012081318193
:1001F0002F7EFC013183208382E390E022E330E014
:10020000F901208131812062FC01318320838AE061
:1002100090E00E94450082E390E022E330E0F901A3
:10022000208131812F7DFC013183208382E390E0A6
:1002300022E330E0F901208131812064FC01318327
:1002400020838AE090E00E94450082E390E022E370
:1002500030E0F901208131812F7BFC013183208343
:1002600082E390E022E330E0F901208131812068CF
:10027000FC01318320838AE090E00E94450082E304
:1002800090E022E330E0F901208131812F77FC01F9
:0A029000318320832FCFF894FFCFB5
:00000001FF
