S01200005350495F4472697665722E737265635B
S11300000C942A000C9434000C9434000C943400A6
S11300100C9434000C9434000C9434000C9434008C
S11300200C9434000C9434000C9434000C9434007C
S11300300C9434000C9434000C9434000C9434006C
S11300400C9434000C9434000C9434000C9434005C
S11300500C94340011241FBECFE5D8E0DEBFCDBF21
S11300600E9436000C945A000C940000CF930E9416
S113007051008FEF8ABBC0E00EC02FE38DE093E008
S1130080215080409040E1F700C000008C2F0E9476
S113009056008BBBCF5FC83380F380E090E0CF91F4
S11300A0089581E58DB980EB87BB08958FB98EB132
S10B00B08FB10895F894FFCF0D
S9030000FC
